:100000000C94050C0C942D0C0C942D0C0C942D0CB4
:100010000C942D0C0C942D0C0C942D0C0C942D0C7C
:100020000C942D0C0C942D0C0C94290E0C949B0EFE
:100030000C942D0C0C942D0C0C942D0C0C942D0C5C
:100040000C942D0C0C94E7120C942D0C0C942D0C8C
:100050000C942D0C0C942D0C0C942D0C0C94AF11B5
:100060000C942D0C0C942D0C0C942D0C0C942D0C2C
:100070000C942D0C0C942D0C0C942D0C0C942D0C1C
:100080000C94F9110C942D0C0C942D0C0C942D0C3B
:100090000C942D0C0C942D0C0C942D0C0C942D0CFC
:1000A0000C942D0C0C942D0C0C942D0CF0F89C8EB3
:1000B0008783878E9CF8F00000FEFF030303030391
:1000C000070EFCF80000FEFF0303030303070EFC0A
:1000D000F80000FFFF00000000000000FFFF00002C
:1000E000FEFF8383838383C7EE7C380000F8FC0E19
:1000F00007030303070EFCF800003F7FE0C0808089
:10010000C0E07F3FFFFF01010101010101FFFF008E
:1001100000FFFF0C0C0C0C1C3E77E3C100007FFFBE
:10012000C0C0C0C0C0E0703F1F00001F3F70E0C0F3
:10013000C0C0E0703F1F00007FFFC1C1C1C1C1E36B
:10014000773E1C00001F3F70E0C0C0C0E0703F1F42
:10015000000000000001FFFF01000000D5F08D1439
:10016000A1C881CFD9F1AF2000000000000000003D
:10017000000000000000000000000000008080007F
:10018000000000000000000000000000000000006F
:10019000000000000000000000000000000000005F
:1001A000000000000000008080404040800000000F
:1001B0000000000000000000008080C0404040605F
:1001C00020A020A020206040404040C080808000CF
:1001D000000000000080C04040404040404040409F
:1001E0004040C080800000000000000000000000CF
:1001F000000000C020D068F45ABED5AD95A994295E
:10020000012903A2044810204080000000000000E3
:1002100000000000000080F00CB65AAF52A64C1847
:100220003020201068B45AAD562A400001FF00006B
:10023000804020A020B01010101F382267A3252274
:100240002522252022A06104000000008060110DFD
:10025000866058AC5AAF52054A00898082808180FE
:10026000C0404020110E000000000000000000000F
:10027000807C0324010B41003FC10000000001010C
:1002800003CE780040000000E031DFD05090509065
:1002900050105010901C37E002000102010A0029A2
:1002A000000080C060A062C0088160308827520DC5
:1002B000F61B090C05040C19D0700000008043A641
:1002C00058A8543A15000000E0380603806018066C
:1002D0000102011240080100000013041404040488
:1002E0008CFC78000000000000000000000000000E
:1002F000FF000000000000000000018282C2C28AEC
:100300008105000500000000010205FC050405044C
:10031000050485FC0406030100806018070302063B
:100320000402010000C03F0D0300000002804120D4
:1003300023664488981008270108003E63C082089D
:100340000104010000010000070408081F1010103C
:100350001030E00000005F113121212161C1010155
:10036000010000000000000000000000000000008C
:1003700003060C181030203010180603000000008F
:100380000101061C3020202010180403000000008A
:1003900000001F10202020180701000000000000AE
:1003A0000000384641404020504844320F000000D1
:1003B000000000000102040808183020202021312C
:1003C000120C0808081810101030202020202020BF
:1003D00020100F080808080808080C060201000091
:1003E000000000000000000000000000000000000D
:1003F00000000000000000000000000000000000FD
:1004000000000000000000000000000000000000EC
:1004100000000000000000000000000000000000DC
:1004200000000000000000000000000000000000CC
:1004300000000000000000000000000000000000BC
:1004400000000000000000000000000000000000AC
:10045000000000000000000000000000000000009C
:10046000000000000000000000000000000000008C
:10047000000000000000000000000000000000007C
:10048000000000000000000000000000000000006C
:10049000000000000000000000000000000000005C
:1004A000000000000000000000000000000000004C
:1004B00000FCFC949468001C3CF0201C000000F838
:1004C000FC2424F800FCFC80800078FC8484780004
:1004D00060E080807C00C4E4B49C8C0000000000DC
:1004E000000000000000000000000000000000000C
:1004F00000000000000000000000000000000000FC
:1005000000000000000000000000000000000000EB
:1005100000000000000000000000000000000000DB
:1005200000000000000000000000000000000000CB
:1005300000000000000000000000000000000000BB
:1005400000000000000000000000000000000000AB
:10055000000000000000000000000000000000009B
:10056000000000000000000000000000000000008B
:1005700000000000000000000000000000800000FB
:10058000000000000000000000000000000000006B
:10059000000000000000000000000000000000005B
:1005A000000000000000008000004000000000008B
:1005B000000000000000000000800080400040209B
:1005C00000A000A00020400040004080008000000B
:1005D000000000000080400040004000400040005B
:1005E000400040800000000000000000000000000B
:1005F00000000080008040A050AA55A815A814282B
:10060000012801A204081020408000000000000022
:1006100000000000000000A004A250AA50A244085C
:100620001020000040A050A8542A400001AA000059
:10063000000000A000A01000100A102245A2052210
:100640000522052000A04100000000000020110844
:10065000042050A850AA5000400001800080018072
:1006600040004020110A00000000000000000000CF
:1006700000280120010A410015800000000001004F
:10068000018A50004000000040205580508050807A
:1006900050005000100815A000000102010A0028B7
:1006A0000000008040A040800080402000225008D0
:1006B000540A01080500040850200000008041A2EF
:1006C00050A8542A150000004028040200201002FF
:1006D00001020102400801000000110014000400A2
:1006E00004A850000000000000000000000000000E
:1006F0005500000000000000000001820082408AD6
:100700000100000000000000010205A8050005002E
:10071000050005A80402010000804008050200024F
:100720000402010000801508010000000080412043
:1007300001224488100000220108002A418000089C
:100740000100010000000000050000081500100075
:1007500010204000000055001120012041800100C0
:100760000100000000000000000000000000000088
:1007700001020408102000201008040200000000FC
:1007800001000408102000201008040200000000EE
:100790000000150000200008050000000000000017
:1007A00000001002410040205008442205000000D3
:1007B00000000000010204080008102000200120B1
:1007C0001008000800081000102000200020002061
:1007D00000000508000800080008040200000000EE
:1007E0000000000000000000000000000000000009
:1007F00000000000000000000000000000000000F9
:1008000000000000000000000000000000000000E8
:1008100000000000000000000000000000000000D8
:1008200000000000000000000000000000000000C8
:1008300000000000000000000000000000000000B8
:1008400000000000000000000000000000000000A8
:100850000000000000000000000000000000000098
:100860000000000000000000000000000000000088
:100870000000000000000000000000000000000078
:100880000000000000000000000000000000000068
:100890000000000000000000000000000000000058
:1008A0000000000000000000000000000000000048
:1008B00000A854801428000814A00008000000A814
:1008C000542004A800A85480000050A804805000C0
:1008D00040A00080540044A01488040000000000E0
:1008E0000000000000000000000000000000000008
:1008F00000000000000000000000000000000000F8
:1009000000000000000000000000000000000000E7
:1009100000000000000000000000000000000000D7
:1009200000000000000000000000000000000000C7
:1009300000000000000000000000000000000000B7
:1009400000000000000000000000000000000000A7
:100950000000000000000000000000000000000097
:100960000000000000000000000000000000000087
:100970000000000000000000000000000000000077
:100980000000000000000000000000000000000067
:100990000000000000000000000000000000000057
:1009A00000000000000000800000000000000000C7
:1009B0000000000000000000008000004000000077
:1009C000008000A000000000400000000080000047
:1009D0000000000000800000400000004000000017
:1009E00040000000000000000000000000000000C7
:1009F00000000000008040A050AA54A815A81428A8
:100A0000012801A0040010004000000000000000C8
:100A100000000000000000A000A250A850A240006A
:100A20001000000040A050A8542A40000188000097
:100A3000000000A000A0100010081022458205222E
:100A40000502052000004100000000000020000019
:100A5000042050A850AA500040000180000001006E
:100A600040000000000A000000000000000000003C
:100A700000200020010A4100158000000000010054
:100A8000018A5000400000004000518040805080AA
:100A9000400040000000048000000102010A00281C
:100AA00000000000400000800000002000205008EE
:100AB000140A01080500040010000000000001A253
:100AC00040A0502A14000000002000020020100264
:100AD00001020102400801000000010004000000C2
:100AE00004004000000000000000000000000000C2
:100AF0000400000000000000000001020002400AA3
:100B000001000000000000000002012005000100BB
:100B100005000188000200000000400800000000FD
:100B200004000100008000080100000000800100B6
:100B3000012000001000002201080022000000082F
:100B40000100010000000000040000080500000092
:100B5000002000000000450010000020018000007F
:100B60000100000000000000000000000000000084
:100B70000002000800200020000800020000000021
:100B8000010000080020000010000002000000002A
:100B90000000100000200000040000000000000021
:100BA0000000100040000020400000200400000071
:100BB00000000000000004000000002000000120F0
:100BC00000080000000000000020000000000020DD
:100BD0000000000800000000000800020000000003
:100BE0000000000000000000000000000000000005
:100BF00000000000000000000000000000000000F5
:100C000000000000000000000000000000000000E4
:100C100000000000000000000000000000000000D4
:100C200000000000000000000000000000000000C4
:100C300000000000000000000000000000000000B4
:100C400000000000000000000000000000000000A4
:100C50000000000000000000000000000000000094
:100C60000000000000000000000000000000000084
:100C70000000000000000000000000000000000074
:100C80000000000000000000000000000000000064
:100C90000000000000000000000000000000000054
:100CA0000000000000000000000000000000000044
:100CB00000A854801428000814A00008000000A810
:100CC000542004A800A85480000050A804805000BC
:100CD00040A00080540044A01488040000000000DC
:100CE0000000000000000000000000000000000004
:100CF00000000000000000000000000000000000F4
:100D000000000000000000000000000000000000E3
:100D100000000000000000000000000000000000D3
:100D200000000000000000000000000000000000C3
:100D300000000000000000000000000000000000B3
:100D400000000000000000000000000000000000A3
:100D50000000000000000000000000000000000093
:100D60000000000000000000000000000000000083
:100D70000000000000000000000000000000000073
:100D80000000000000000000000000000000000063
:100D90000000000000000000000000000000000053
:100DA00000000000000000800000000000000000C3
:100DB0000000000000000000008000004000000073
:100DC0000000002000000000400000000080000043
:100DD0000000000000800000400000004000000013
:100DE00040000000000000000000000000000000C3
:100DF00000000000000000000002008001800000F0
:100E0000010001000400100040000000000000008C
:100E100000000000000000A000020000000200002E
:100E20001000000000000000000000000188000029
:100E3000000000A0002010001008102240800020B8
:100E40000000002000004000000000000020000022
:100E500004201008000200000000018000000100D2
:100E600040000000000A0000000000000000000038
:100E700000200000010000001480000000000100BC
:100E8000010A5000000000004000110000001000A6
:100E900000000000000004800000000000000000CE
:100EA0000000000040000080000000200020100032
:100EB000000001000000040010000000000001A27A
:100EC0004000000204000000002000020020100288
:100ED00001000000400801000000010004000000C3
:100EE00004004000000000000000000000000000BE
:100EF0000400000000000000000000020000400AA2
:100F000000000000000000000002002004000000BB
:100F100004000088000200000000400800000000FB
:100F200004000100008000080100000000800100B2
:100F3000012000001000002201080022000000082B
:100F4000010000000000000004000008050000008F
:100F5000002000000000450010000020018000007B
:100F60000100000000000000000000000000000080
:100F7000000200080020002000080002000000001D
:100F80000100000800200000100000020000000026
:100F9000000010000020000004000000000000001D
:100FA000000010004000002040000020040000006D
:100FB00000000000000004000000002000000120EC
:100FC00000080000000000000020000000000020D9
:100FD00000000008000000000008000200000000FF
:100FE0000000000000000000000000000000000001
:100FF00000000000000000000000000000000000F1
:1010000000000000000000000000000000000000E0
:1010100000000000000000000000000000000000D0
:1010200000000000000000000000000000000000C0
:1010300000000000000000000000000000000000B0
:1010400000000000000000000000000000000000A0
:101050000000000000000000000000000000000090
:101060000000000000000000000000000000000080
:101070000000000000000000000000000000000070
:101080000000000000000000000000000000000060
:101090000000000000000000000000000000000050
:1010A0000000000000000000000000000000000040
:1010B00000A80080100000000480000800000088E4
:1010C0000020008800200480000010800400100030
:1010D0004000008004000080148004000000000034
:1010E0000000000000000000000000000000000000
:1010F00000000000000000000000000000000000F0
:1011000000000000000000000000000000000000DF
:1011100000000000000000000000000000000000CF
:1011200000000000000000000000000000000000BF
:1011300000000000000000000000000000000000AF
:10114000000000000000000000000000000000009F
:10115000000000000000000000000000000000008F
:101160000000000000000000000102040810204000
:101170008000000000003E5B4F5B3E3E6B4F6B3ECD
:101180001C3E7C3E1C183C7E3C181C577D571C1C8A
:101190005E7F5E1C00183C1800FFE7C3E7FF0018E5
:1011A000241800FFE7DBE7FF30483A060E262979CE
:1011B0002926407F050507407F05253F5A3CE73C2F
:1011C0005A7F3E1C1C08081C1C3E7F14227F2214E0
:1011D0005F5F005F5F06097F017F006689956A6037
:1011E0006060606094A2FFA29408047E040810204E
:1011F0007E201008082A1C08081C2A08081E101047
:1012000010100C1E0C1E0C30383E3830060E3E0EF0
:1012100006000000000000005F000000070007005B
:10122000147F147F14242A7F2A1223130864623641
:10123000495620500008070300001C2241000041CD
:10124000221C002A1C7F1C2A08083E080800807007
:10125000300008080808080000606000201008043A
:10126000023E5149453E00427F400072494949468D
:101270002141494D331814127F1027454545393C0B
:101280004A494931412111090736494949364649F8
:1012900049291E000014000000403400000008141A
:1012A0002241141414141400412214080201590993
:1012B000063E415D594E7C1211127C7F49494936E8
:1012C0003E414141227F4141413E7F494949417F61
:1012D000090909013E414151737F0808087F004117
:1012E0007F41002040413F017F081422417F404060
:1012F00040407F021C027F7F0408107F3E41414135
:101300003E7F090909063E4151215E7F09192946A0
:10131000264949493203017F01033F4040403F1FB6
:101320002040201F3F4038403F63140814630304EB
:101330007804036159494D43007F4141410204084B
:101340001020004141417F0402010204404040401E
:1013500040000307080020545478407F2844443854
:101360003844444428384444287F3854545418009E
:10137000087E090218A4A49C787F0804047800441D
:101380007D40002040403D007F1028440000417F08
:1013900040007C047804787C080404783844444491
:1013A00038FC1824241818242418FC7C0804040889
:1013B000485454542404043F44243C4040207C1CA2
:1013C0002040201C3C4030403C44281028444C9095
:1013D00090907C4464544C440008364100000077EF
:1013E0000000004136080002010204023C262326C8
:1013F0003C1EA1A161123A4040207A3854545559FC
:101400002155557941215454784121555478402033
:10141000545579400C1E527212395555555939544C
:1014200054545939555454580000457C41000245E4
:101430007D420001457C40F0292429F0F028252830
:10144000F07C545545002054547C547C0A097F4953
:1014500032494949323248484832324A4848303A9B
:101460004141217A3A42402078009DA0A07D394434
:101470004444393D4040403D3C24FF2424487E49BB
:1014800043662B2FFC2F2BFF0929F620C0887E09ED
:101490000320545479410000447D413048484A3289
:1014A000384040227A007A0A0A727D0D19317D2671
:1014B00029292F28262929292630484D4020380857
:1014C00008080808080808382F10C8ACBA2F1028D8
:1014D00034FA00007B000008142A142222142A1473
:1014E000089500220095AA005500AAAA55AA55AA57
:1014F000000000FF00101010FF00141414FF001073
:1015000010FF00FF1010F010F0141414FC0014145D
:10151000F700FF0000FF00FF1414F404FC1414177C
:10152000101F10101F101F1414141F00101010F0A3
:10153000000000001F101010101F10101010F010ED
:10154000000000FF101010101010101010FF1000FD
:101550000000FF140000FF00FF00001F1017000034
:10156000FC04F414141710171414F404F40000FF0E
:1015700000F714141414141414F700F714141417A7
:101580001410101F101F141414F4141010F010F085
:1015900000001F101F0000001F14000000FC1400BA
:1015A00000F010F01010FF10FF141414FF141010AE
:1015B000101F00000000F010FFFFFFFFFFF0F0F031
:1015C000F0F0FFFFFF0000000000FFFF0F0F0F0F04
:1015D0000F38444438447C2A2A3E147E0202060610
:1015E000027E027E0263554941633844443C044014
:1015F0007E201E2006027E020299A5E7A5991C2ADC
:10160000492A1C4C7201724C304A4D4D303048789A
:101610004830BC625A463D3E494949007E010101BD
:101620007E2A2A2A2A2A44445F444440514A44409C
:1016300040444A51400000FF0103E080FF000008E1
:10164000086B6B083612362436060F090F060000A9
:1016500018180000001010003040FF0101001F01A9
:10166000011E00191D1712003C3C3C3C000000000C
:101670000000000000240027002A002D0030000098
:10168000000000250028002B002E00310004080275
:1016900001104080401020408040800802040180FA
:1016A0004020100201108010204040200404040457
:1016B00004030405020202020403020202020606F7
:1016C00006060606040402020204040601150126A9
:1016D0000137014A015D01720188019F01B801D201
:1016E00001EE010B022A024B026E029302BA02E4DF
:1016F0000210033F037003A403DC0317045504978F
:1017000004DD0427057505C80520067D06E00649A9
:1017100007B8072D08A9082D09B9094D0AEA0A904A
:101720000B400CFA0CC00D910E6F0F5A1053115B49
:101730001272139A14D41520178018F519801B23E0
:101740001DDE1EB420A622B524E4263429A72B4092
:101750002E0031EA330037453ABC3D68414C456BB9
:1017600049C84D68524F57805C0062101112131522
:101770001617181A1C1D1F21232527292C2E31343A
:10178000373A3E4145494E52575C62686E757B83DD
:101790008B939CA5AFB9C4D0DCE9F7080B0002021B
:1017A00002010009040000010202000005240010EB
:1017B0000105240101010424020605240600010795
:1017C00005810310004009040100020A000000071F
:1017D00005020240000007058302400000040309DF
:1017E0000412010002EF0201404123368000010192
:1017F00002030141726475696E6F204C4C430041D5
:10180000726475626F790000282011241FBECFEF2B
:10181000DAE0DEBFCDBF11E0A0E0B1E0EAE9F2E43A
:1018200002C005900D92A23AB107D9F726E0A2EACC
:10183000B1E001C01D92A235B207E1F71CE0C5E09E
:10184000DCE004C02197FE010E944021C430D10792
:10185000C9F70E9415190C944B210C94000040917B
:10186000CF015091D0012091CD013091CE0142178E
:101870005307B4F49091E8009570E1F39091E8007B
:1018800092FD19C08093F1008091CF019091D00119
:1018900001968F739927892B19F48EEF8093E800B6
:1018A0008091CF019091D00101969093D0018093C7
:1018B000CF0181E0089580E00895DF92EF92FF92DA
:1018C0000F931F93CF93DF93D82E8A017B01E40EF1
:1018D000F51EEB01CE15DF0571F0D7FE03C0FE014A
:1018E000849101C088810E942F0C21968111F2CF32
:1018F0008FEF9FEF01C0C801DF91CF911F910F9132
:10190000FF90EF90DF900895615030F02091F1004A
:10191000FC0120830196F8CF289884E68093D201B9
:101920000895CF92DF92EF92FF920F931F93CF9380
:10193000DF936C017A018B01C0E0D0E0CE15DF05AA
:1019400089F0D8016D918D01D601ED91FC91019046
:10195000F081E02DC6010995892B11F47E0102C0AA
:101960002196ECCFC701DF91CF911F910F91FF908E
:10197000EF90DF90CF900895CF93DF931F92CDB774
:10198000DEB76983DC01ED91FC910280F381E02DEB
:1019900041E050E0BE016F5F7F4F09950F90DF91EE
:1019A000CF91089583E08093E9008091F20088232D
:1019B00019F08AE38093E8000895FC0184859585F9
:1019C00097FD0BC09FB7F89482E08093E900809167
:1019D000F2009FBF90E0019608959FB7F89482E0CF
:1019E0008093E9008091F2009FBF90E00895CF922C
:1019F000DF92EF92FF921F93CF93DF93E82FF0E0F7
:101A0000E65AFE4F1081E62FF0E0603330F4E559DE
:101A1000F84EE491CE2FD0E006C0EE0FFF1FE5593F
:101A2000F94EC591D4916E01E12CF12C60E074E285
:101A300084EF90E0A70196010E94D120DA01C9014C
:101A40000197A109B109009721E0A207B10578F03B
:101A500060E970ED83E090E0A70196010E94D1203B
:101A6000DA01C9010197A109B10923E001C021E010
:101A70001130E9F0133091F530919100387F232B2C
:101A80002093910090939900809398001092950074
:101A900010929400D093C701C093C60181E0809357
:101AA000C5018091710082608093710017C03091F0
:101AB000D901311113C030918100387F232B20933D
:101AC0008100909389008093880010928500109285
:101AD000840080916F00826080936F00DF91CF91CE
:101AE0001F91FF90EF90DF90CF900895E82FF0E0E6
:101AF000E65AFE4F8081813019F0833089F00895D5
:101B00008091D901811122C080916F008D7F8093D7
:101B10006F009091B801E091B601F091B7010CC04F
:101B20001092C5018091D801811110C09091C3011C
:101B3000E091C101F091C2018081282F30E0892F0E
:101B400090E08095909582239323808308958091DF
:101B5000A50108950895089580E090E008950E94F9
:101B600046210F931F93CF93DF931F92CDB7DEB71C
:101B700082E0898342E450E06BE977E180E80E94EB
:101B80005D0C0E940119DC0112960D911C911397B6
:101B90000115110569F0D801ED91FC910280F381E6
:101BA000E02DBE016F5F7F4FC801099597FF07C009
:101BB00089810F90DF91CF911F910F910895F801C6
:101BC00000851185E5CF0E94F01890E008950F93ED
:101BD0001F93CF93DF931F92CDB7DEB78C01FC012B
:101BE0008485958597FF0EC0CE0101960E94C61888
:101BF000019719F4298130E002C02FEF3FEFF8017F
:101C000035872487F801848595850F90DF91CF91E2
:101C10001F910F910895CF93DF931F92CDB7DEB739
:101C2000FC018485958597FD05C02FEF3FEF358733
:101C300024870BC0CE0101960E94C618019719F4A3
:101C4000898190E002C08FEF9FEF0F90DF91CF91DD
:101C500008951F920F920FB60F9211248F939F93A6
:101C60008091E1009091E100937F9093E10083FFE8
:101C70000FC01092E90091E09093EB001092EC00FD
:101C800092E39093ED001092D30198E09093F000CE
:101C900082FF20C093E09093E9009091F200992395
:101CA00019F09AE39093E8009091D101992339F0CB
:101CB0009091D10191509093D101992389F1909104
:101CC000D201992339F09091D20191509093D20191
:101CD000992341F184FF10C08091E2008E7E8160E3
:101CE0008093E2008091E1008F7E8093E1008091FB
:101CF000A3018E7E806111C080FF16C08091E2003A
:101D00008E7E80618093E2008091E1008E7E8093E0
:101D1000E1008091A3018E7E81608093A30104C0C5
:101D20005D9ACDCF289AD6CF9F918F910F900FBEFD
:101D30000F901F9018951F920F920FB60F921124BB
:101D4000CF92DF92EF92FF920F931F932F933F93C7
:101D50004F935F936F937F938F939F93AF93BF93B3
:101D6000EF93FF93CF93DF93CDB7DEB76C97DEBFD2
:101D7000CDBF1092E9008091E80083FFEDC168E0DB
:101D8000CE0145960E94840C82EF8093E8008D89F5
:101D900087FF05C09091E80090FFFCCF03C09EEF45
:101DA0009093E800982F907609F0C6C09E892F89FD
:101DB000188D91110CC0803829F48091A401809372
:101DC000F10002C01092F1001092F10048C1422FC0
:101DD00050E0512B913051F4811141C141305105F6
:101DE00009F03DC18091A4018D7F0BC0933061F457
:101DF000811135C14130510509F031C18091A401F3
:101E000082608093A4012BC1953041F48091E80059
:101E100080FFFCCF20682093E30021C1963009F0B9
:101E20005FC0EB8CFC8C1092E9001092D0011092F4
:101E3000CF01123091F51092CE011092CD010E9487
:101E4000B10D99E0BE016F5F7F4FDB01E92F1D925D
:101E5000EA95E9F799831A8391E09E8390EA98873F
:101E60009AEF99872091CF013091D001275F3F4FA2
:101E70003C832B838D831092E9001092D001109245
:101E8000CF01F092CE01E092CD0149E050E080E038
:101E90000E945D0C0E94B10DE2C0F092CE01E09272
:101EA000CD010E940119DC011296ED90FC90139770
:101EB000E114F10409F4C0C0D701ED91FC91048054
:101EC000F581E02DBE016B5E7F4FC701099500973C
:101ED00019F00CF0C4C0C7C0F701E084F184E8CF6A
:101EE000973009F4C0C0983021F481E08093F1006C
:101EF000B6C0993009F0B3C0837009F0B4C0EDE505
:101F0000F1E081E021E036E39081992361F0809354
:101F1000E9002093EB0091919093EC003093ED0059
:101F20008F5F873089F78EE78093EA001092EA008E
:101F30008F898093D30193C08B8D9C8D1092E90083
:101F40001092D0011092CF019093CE018093CD01D9
:101F5000898D811156C08E899D89913A59F48132BB
:101F600009F081C047E050E06EE471E080E00E943B
:101F70005D0C75C0913209F076C0833289F4888D8A
:101F800090E0982F88272F89822BA0E0B0E08093E3
:101F90004A0190934B01A0934C01B0934D015FC057
:101FA000803269F48091E80082FFFCCF67E08EE424
:101FB00091E00E94840C8BEF8093E80006C082328F
:101FC00009F04DC08F89809355018091A20188232B
:101FD00019F0EEEFFAE002C0E0E0F8E080914E0187
:101FE00090914F01A0915001B0915101803B9440DC
:101FF000A105B10509F07BC08091550180FF93C018
:1020000076C00E940119DC0112960D911C91139764
:102010000115110541F1D801ED91FC910190F0817C
:10202000E02DBE016B5E7F4FC8010995811117C07D
:10203000F80100851185ECCF113009F44EC0133042
:1020400091F48F89882309F445C0823081F440E8F7
:1020500067E08FEF97E10E94AA1F882321F08EEF9F
:102060008093E80079C081E28093EB0075C08130F5
:1020700029F440E86BE083EF97E1EDCF833099F7E7
:102080000E940119DC011296ED90FC9013978E01CD
:102090000F5F1F4F6801E114F10479F0D701ED9152
:1020A000FC910680F781E02DB801C7010995080F62
:1020B000111DF701E084F184EECFD8011C92F601E6
:1020C00001900020E9F73197BF016C197D0940E0CC
:1020D000C601C1CF6DED77E102C061EE77E1611518
:1020E000710509F2FB01449150E080E840CF0FB642
:1020F000F894A895809160008861809360001092A8
:1021000060000FBEA895EE3F2AE0F20739F08091FB
:10211000FE0A9091FF0A91838083A1CF1092FF0A5B
:102120001092FE0A9CCFEE3F8AE0F80731F08081E2
:1021300091819093FF0A8093FE0A87E797E7918346
:1021400080839BE088E10FB6F894A89580936000A7
:102150000FBE9093600083CF6C960FB6F894DEBFED
:102160000FBECDBFDF91CF91FF91EF91BF91AF91A6
:102170009F918F917F916F915F914F913F912F919F
:102180001F910F91FF90EF90DF90CF900F900FBEB7
:102190000F901F9018953FB7F8948091C9019091C6
:1021A000CA01A091CB01B091CC0126B5A89B05C076
:1021B0002F3F19F00196A11DB11D3FBFBA2FA92FC6
:1021C000982F8827820F911DA11DB11DBC01CD0143
:1021D00042E0660F771F881F991F4A95D1F708952F
:1021E0008F929F92AF92BF92CF92DF92EF92FF9227
:1021F0006B017C010E94CB104B015C01C114D10426
:10220000E104F104F1F00E94CB10DC01CB0188194C
:102210009909AA09BB09883E9340A105B10570F34D
:1022200021E0C21AD108E108F10888EE880E83E0A7
:10223000981EA11CB11CC114D104E104F10419F7CA
:10224000DDCFFF90EF90DF90CF90BF90AF909F9049
:102250008F9008958F929F92AF92BF92CF92DF920C
:10226000EF92FF920F931F93CF93DF935C016B016B
:102270007A0180915501882309F45BC08091D301D4
:10228000882309F456C08091A30180FF05C0809186
:10229000E00082608093E000E70110E00AEF83E055
:1022A000882E9AE3992E2097D9F10E94F018811177
:1022B0000AC0015009F43DC061E070E080E090E0A8
:1022C0000E94F010F0CF282F30E0C217D3070CF493
:1022D0008C2F4FB7F8948092E9009091E80095FF19
:1022E0001DC0282F30E0C21BD30BF601982F915050
:1022F00020F081918093F100FACFC20ED31E1123FA
:1023000019F09092E80009C08091E80085FD06C0B0
:102310009092E80011E0209709F010E04FBFC3CF82
:102320001111C3CF5D9884E68093D1011E141F0460
:1023300044F081E090E0F5019383828380E090E0B7
:1023400001C0C701DF91CF911F910F91FF90EF90D6
:10235000DF90CF90BF90AF909F908F9008951F9285
:102360000F920FB60F9211242F933F938F939F9349
:10237000AF93BF938091A6019091A701A091A8016E
:10238000B091A9013091C80123E0230F2D3720F42B
:102390000196A11DB11D05C026E8230F0296A11DBF
:1023A000B11D2093C8018093A6019093A701A0932B
:1023B000A801B093A9018091C9019091CA01A0918F
:1023C000CB01B091CC010196A11DB11D8093C90133
:1023D0009093CA01A093CB01B093CC01BF91AF9170
:1023E0009F918F913F912F910F900FBE0F901F9053
:1023F00018951F920F920FB60F9211242F933F93AF
:102400004F935F936F937F938F939F93AF93BF93FC
:10241000CF93DF93EF93FF938091C501882349F019
:102420008091D801811105C08091C401882309F4ED
:10243000ABC08091C001882309F4B6C08091BC0173
:102440009091BD01A091BE01B091BF01892B8A2B53
:102450008B2B09F4A9C08091BC019091BD01A09182
:10246000BE01B091BF010197A109B1098093BC01E0
:102470009093BD01A093BE01B093BF01892B8A2B1D
:102480008B2B09F091C0D1E0E091BA01F091BB0132
:102490009F012F5F3F4F3093BB012093BA0184917E
:1024A000982F907FC82FCF70903821F48C2F0E94E6
:1024B000760DEACF9039F9F4E0912B06F0912C06D5
:1024C00009958D278093C401E091BA01F091BB0179
:1024D000CF0101969093BB018093BA0164918091E2
:1024E000DA01C81788F6C13009F058C08091B901E7
:1024F0008111CACF53C097FD3AC03296F093BB0109
:10250000E093BA01F901249130E0382BA091C60183
:10251000B091C7010E9425216C507E4F8F4F9F4F75
:1025200028EE33E040E050E00E9403212093BC01FC
:102530003093BD014093BE015093BF018091BC0117
:102540009091BD01A091BE01B091BF01892B8A2B52
:102550008B2B51F581E090E0A0E0B0E08093BC01CE
:102560009093BD01A093BE01B093BF011DC0903EEA
:1025700029F41092BB011092BA0186CF903F09F066
:1025800083CF1092C00110C08091C301E091C101BE
:10259000F091C2019081892780834BCF67FD74CF72
:1025A0008C2F0E94F70C70CFFF91EF91DF91CF91AC
:1025B000BF91AF919F918F917F916F915F914F915B
:1025C0003F912F910F900FBE0F901F9018951F9263
:1025D0000F920FB60F9211242F933F938F939F93D7
:1025E000AF93BF93EF93FF938091D901882309F4B0
:1025F0004FC08091D4019091D501A091D601B091A6
:10260000D701892B8A2B8B2B51F18091B801E09156
:10261000B601F091B7019081892780838091D40120
:102620009091D501A091D601B091D7011816190645
:102630001A061B06D4F58091D4019091D501A09182
:10264000D601B091D7010197A109B1098093D401B6
:102650009093D501A093D601B093D70126C01092D4
:10266000D8011092D90180916F008D7F80936F0007
:102670009091B801E091B601F091B7018081282FC7
:1026800030E0892F90E080959095822393230CC0B1
:102690008091C401811109C08091B801E091B60117
:1026A000F091B701908189278083FF91EF91BF91CD
:1026B000AF919F918F913F912F910F900FBE0F90EF
:1026C0001F9018959091DA01923009F471C0292F6A
:1026D00030E0F901E65AFE4F4081F901EC54FE4F1B
:1026E0008083913031F42091B401281302C090937B
:1026F000B9019F5F9093DA0190E0FC01E455F94E37
:102700002491FC01E357F94E849130E0220F331FEE
:10271000F901E158F94E65917491F901EF58F94EBC
:10272000A591B4919C91982B9C93413019F0433022
:10273000D9F0089590916400977F9093640010926F
:1027400080001092810090918100986090938100A8
:10275000909181009160909381007093B701609394
:10276000B6018093B801089590916500977F90938A
:1027700065001092900010929100909191009860E5
:10278000909391009091910091609093910070933B
:10279000C2016093C1018093C3018091DA01882353
:1027A00021F06CE380E00E94F70C80E00C94760D41
:1027B00008952D9A0895BC0180E090E00C94F010EB
:1027C0008FB18095807F669B88601C9B8460089594
:1027D0000C94BB2080E00C94B81760387105D0F4DD
:1027E00040345105B8F4E9E6F1E180E1849FD0017D
:1027F000A0781124A60F4770E40FF11D8491A55213
:10280000BE4F222319F06C91862B03C080956C91EA
:1028100086238C9308952F923F924F925F926F92EE
:102820007F928F929F92AF92BF92CF92DF92EF9260
:10283000FF920F931F93CF93DF93CDB7DEB7299706
:102840000FB6F894DEBF0FBECDBFFC016A3069F44D
:1028500025898189928938E0239F800D911D11245B
:10286000928B818B108A1786AAC06D3009F4A7C09D
:1028700099878887F58834882388618872880785D6
:10288000108900381105C4F0A885B98555962C919A
:102890005597422F50E01F968D919C915097B6E02E
:1028A0002B9F800D911D1124E885F985908B8787DA
:1028B000268921116EC083C0F0E46F16710424F7DD
:1028C000C80125E0F29E800D911D112418161906ED
:1028D000DCF68F2D90E09C838B83C301A8E0FA9EE9
:1028E000800D911D11241816190674F6B5E06B9F22
:1028F000B0011124FB01EF58FE4EFA83E98330E06A
:102900008885998504969E838D83E981FA81E49078
:10291000353009F4E12C430188E0482EE0FC02C088
:10292000532C01C0522C51100BC0321009C0E69438
:102930004A948B819C81880E991E4110EFCF1BC059
:1029400068018C2D801B8F1590F754018A2D8819F2
:102950008F1568F4252DA501B6018D819E813F83D9
:102960000E94ED139FEFA91AB90A3F81EFCFAFEF95
:10297000CA1ADA0AE6CF3F5FEB81FC810E0F1F1FF8
:1029800089819A8101969A838983363009F0BDCF77
:102990007BCF6AEF64039001659F300D11242058AE
:1029A0003F4F281739075CF4A885B985ED91FC9154
:1029B00011970190F081E02D6AE0CD01099581E049
:1029C00090E029960FB6F894DEBF0FBECDBFDF9121
:1029D000CF911F910F91FF90EF90DF90CF90BF901C
:1029E000AF909F908F907F906F905F904F903F90AF
:1029F0002F900895BF92CF92DF92EF92FF920F93A4
:102A00001F93CF93DF9321E030E045E555ED61E082
:102A100070ECA1E02F3189F0822F90E0880F991F90
:102A2000FC01E85FFE4F311103C07183608302C077
:102A3000518340833A272F5FEDCF84E08093B2012A
:102A400082E08093B301C3E000E010E820E1C22EF1
:102A500027E2D22EE12CF12CDFEFBB24B39480913E
:102A6000B3018E3108F06EC0C093B1018091B10105
:102A7000E091B3018E3008F05FC0F0E0EE0FFF1F71
:102A8000E85FFE4F980102C0369527958A95E2F7D8
:102A900080819181822B932B918380830E94AD2032
:102AA0000E94AD20A70196010E94D120862F60913F
:102AB000B2010E9434219093B0011092AF011092A4
:102AC000AE01911103C0B092AE010EC0913019F465
:102AD000D093AF0109C0923019F4B092AF0104C095
:102AE000933011F4D093AE018091B301E091AE0127
:102AF0000E2E000CFF0BE80FF11DEE0FFF1FE85F1D
:102B0000FE4F408151818091B1019091AF01980FAA
:102B1000980102C0369527959A95E2F7B90164238A
:102B20007523672B09F0BACF242B352B31832083F3
:102B30008E5F8093B1019ACFC093B201EE5FE093B4
:102B4000B3018DCFDF91CF911F910F91FF90EF9047
:102B5000DF90CF90BF900895E82FF0E0EE0FFF1FB9
:102B6000E85FFE4F80819181262F30E0683010F0C1
:102B7000992702C0892F99272095309527703327F0
:102B800002C0959587952A95E2F781700895DF92A6
:102B9000EF92FF920F931F93CF93DF937C01D22E7E
:102BA0008B01040F111DEB0177FF0EC0C0E0D0E0D8
:102BB0000BC0C417D5077CF42D2DAE01B70182E3FD
:102BC00096E00E94ED132196A801013411058CF3C3
:102BD00040E450E0EECFDF91CF911F910F91FF9035
:102BE000EF90DF9008952F923F924F925F926F92F5
:102BF0007F928F929F92AF92BF92CF92DF92EF928D
:102C0000FF920F931F93CF93DF9300D000D0CDB7E7
:102C1000DEB75C014B01322E842F90E09C838B83C6
:102C2000440F4F5F681B790BC5010E94C71501E077
:102C300010E0EB81FC810E1B1F0BCF01919581955C
:102C400091093C01660C771CE12CF12CCC24C39437
:102C5000D12C8B819C81E816F9060CF046C017FD3B
:102C60000AC08B819C8101979C838B8392E0690EC3
:102C7000711C060D171DEFEFEE1AFE0AF2E0CF0EE3
:102C8000D11C0C0D1D1D2B80220C2394232D422DB5
:102C900024018B819C81481A590AB201C7018A0D0F
:102CA0009B1D0E94C715F401EE19FF09FA83E98301
:102CB000232D4C2DBF018B819C818A0D9B1D0E9471
:102CC000C715232D422DB201C5018E199F090E94FF
:102CD000C715232D4C2D69817A81C501EB81FC81BB
:102CE0008E1B9F0B0E94C715B4CF0F900F900F90B3
:102CF0000F90DF91CF911F910F91FF90EF90DF9098
:102D0000CF90BF90AF909F908F907F906F905F908B
:102D10004F903F902F900895009769F0FC0101902B
:102D20000020E9F73197AF01481B590BBC018EE237
:102D300096E00C94910C80E090E008958F929F9221
:102D4000AF92BF92CF92DF92EF92FF920F931F93B9
:102D5000CF93DF93CDB7DEB7A1970FB6F894DEBF60
:102D60000FBECDBF6C01990FEE08FF08F7FE31C012
:102D7000E0912E06F0912F060190F081E02D6DE29A
:102D80008EE296E009958C0122273327A9012C19A0
:102D90003D094E095F0919A2CE0181967C019AE096
:102DA000892E912CA12CB12CCA01B901A501940145
:102DB0000E940321605DF70162937F0121153105B7
:102DC0004105510589F7CF010E948C16800F911F94
:102DD0001DC0A701960119A28E010F5D1F4F8AE049
:102DE000C82ED12CE12CF12CCA01B901A701960102
:102DF0000E940321605DF80162938F012115310566
:102E00004105510589F7CF010E948C16A1960FB696
:102E1000F894DEBF0FBECDBFDF91CF911F910F9110
:102E2000FF90EF90DF90CF90BF90AF909F908F90EA
:102E3000089590E0EBEDF1E091119FEF8FEF91930A
:102E40009193919391938150D0F7EEE2F6E0128A3C
:102E5000118A108A178608954F925F926F927F921F
:102E60008F929F92AF92BF92CF92DF92EF92FF929A
:102E7000CF93DF93EC014A015B01E0912B06F091C7
:102E80002C060995882309F464C08091DA01823008
:102E900008F45FC081E08093D9018091510680934E
:102EA000D8012E01612C712C60E072E18AE790E07C
:102EB000A30192010E94D12069017A0181E0C81A20
:102EC000D108E108F108C114D10481E0E806F10459
:102ED000F0F168E478EE81E090E0A30192010E94B5
:102EE000D12069017A0181E0C81AD108E108F1080E
:102EF00083E090918100987F982B909381008114BA
:102F00009104A104B10471F0DE01AA0FBB1FA50159
:102F100094010E94F02028EE33E040E050E00E944F
:102F2000032103C02FEF3FEFA901D0928900C09287
:102F300088002093D4013093D5014093D60150935B
:102F4000D70180916F00826080936F0002C081E0A2
:102F5000D0CFDF91CF91FF90EF90DF90CF90BF90D7
:102F6000AF909F908F907F906F905F904F9008955B
:102F7000EBEDF1E0A0E0B8E000800EBC8111012C87
:102F80001197A0FDFDCF0192B9F70DB408952F92CE
:102F90003F924F925F926F927F928F929F92AF92E9
:102FA000BF92CF92DF92EF92FF920F931F93CF9336
:102FB000DF93CDB7DEB728970FB6F894DEBF0FBE0C
:102FC000CDBF5A01822E912C9C01280D391D37FD51
:102FD000C4C0803891050CF0C0C09B01200F311D8A
:102FE00037FDBBC0603471050CF0B7C0AB0177FF93
:102FF00004C044275527461B570B477055279B0194
:1030000077FF02C0295F3F4FE3E035952795EA95AA
:10301000E1F777FF08C02150310968E070E0DB017B
:10302000A41BB50BAD01602F66956695669570E0A3
:10303000077011F06F5F7F4FDB01A20FB31FBA83E0
:10304000A98339017694762C662477946794680E68
:10305000791EE12CF12C00E010E02301B0E84B0ECA
:10306000511C68E070E0DB01A41BB50BBC83AB8393
:1030700069817A812617370709F46FC02830310536
:1030800009F46BC02F3FBFEF3B070CF45BC0B201EC
:10309000600F711FDB01A552BE4FBE83AD83D80107
:1030A000A60DB71DA552BE4F6C0160E070E068151B
:1030B00079050CF047C0E0E8CE16D10409F442C00F
:1030C000D7FC34C02F3FFFEF3F0709F442C0FB019C
:1030D000EE0DFF1DEA0DFB1DE491042E01C0EE0F65
:1030E0000A94EAF73C90E329EC9341155105F1F07D
:1030F00027303105D9F0FB01EE0DFF1DEA0DFB1D58
:10310000E4912E2E312CF1010B8002C0F595E7954C
:103110000A94E2F7F887EF83ED81FE813080EF813A
:10312000F885E3291F01ED81FE8120826F5F7F4FCB
:10313000ED81FE813196FE83ED83FFEFCF1ADF0A2A
:103140001196B5CF2F5F3F4F00581F4FE80CF91C69
:103150008FCF4115510579F6E9CF28960FB6F8942F
:10316000DEBF0FBECDBFDF91CF911F910F91FF90BA
:10317000EF90DF90CF90BF90AF909F908F907F9017
:103180006F905F904F903F902F900895FC01809139
:10319000D301811103C08FEF9FEF08959FB7F8947B
:1031A00082E08093E9002091F20030E012161306CD
:1031B00014F421E030E02115310559F0289884E617
:1031C0008093D2018091F10080838091F200882366
:1031D00019F09FBFC90108958BE68093E800F9CFED
:1031E0002FB7F89483E08093E9009091E800892F4D
:1031F000807295FF04C09091F20080E4891B2FBF7C
:1032000008958091490681110DC082E080934506A2
:1032100084E080934606109248061092470681E0AB
:103220008093490685E496E00895CF93DF93CDB768
:10323000DEB727970FB6F894DEBF0FBECDBF7894E8
:1032400084B5826084BD84B5816084BD85B58260AB
:1032500085BD85B5816085BD80916E00816080935C
:103260006E001092810080918100826080938100C5
:1032700080918100816080938100809180008160D5
:103280008093800080919100826080939100809172
:103290009100816080939100809190008160809383
:1032A00090008091C10084608093C1008091C10032
:1032B00082608093C1008091C10081608093C100D1
:1032C0008091C30081608093C3008091C0008260C0
:1032D0008093C0008091C20081608093C200809181
:1032E0007A00846080937A0080917A008260809373
:1032F0007A0080917A00816080937A0080917A00D0
:10330000806880937A001092D3011092A4011092E9
:10331000A3018091D70081608093D70080EA8093D9
:10332000D80089B5806189BD89B5826089BD09B43D
:1033300000FEFDCF61E070E080E090E00E94F010C0
:103340008091D8008F7C80618093D8008091E000CC
:10335000807F8093E0008091E1008E7E8093E10089
:103360008DE08093E200559A209AEEEFFFE7859179
:1033700094918B3F9C4D19F481E08093A20181ECE4
:1033800080937C0081EF85B987EE84B984E28BB9A4
:1033900084EF8AB9769A6E9880EF81BB10BA80E587
:1033A0008CBD81E08DBD85E090E00E94DB135F99CC
:1033B00002C05F9AF8CF5C98ECE5F1E09DE0859162
:1033C0008EBD00000DB407FEFDCF8EB59A95B9F7FE
:1033D0005C9A81E080936400809365000E94B81736
:1033E0000E94E01387FF25C05C9885EA8EBD00002F
:1033F0000DB407FEFDCF8EB55C9A2E982F982D98B0
:103400008091640080628093640081E083BF88952E
:1034100013BEFCCF2D980E94E0138478843871F09D
:103420000E94E0138471843131F188EC90E00E94B5
:10343000DB130E94E01382FDEDCF3AC00E94D91346
:1034400088EC90E00E94DB132F9882E090E00E94CD
:10345000BB208F3F29F06FEF82E090E00E94C320F5
:1034600084EF91E00E94DB132F9A0E94E01384788E
:103470008438D9F3D5CF0E94D91388EC90E00E940C
:10348000DB132E9882E090E00E94BB20882329F075
:1034900060E082E090E00E94C32084EF91E00E940F
:1034A000DB132E9A0E94E01384718431D9F3BDCFCF
:1034B0000E94D91382E090E00E94BB20882331F063
:1034C0003E9A3F9A81E08093A50104C01092A50125
:1034D0003E983F9881E090E00E94E81382FB11271C
:1034E00010F981FF45C011112E9850EFE52EFF24F1
:1034F000FA940E94E01386FF04C02E9A2F9A2D9A08
:1035000037C0112331F034E0E316F10411F42E9AA0
:103510002F9881E00E94B81700E128E54CEA50E0BE
:10352000B70184E190E00E94C71782E396E00E9411
:10353000EA138FE090E00E94DB138FEFE81AF80A9D
:1035400099E1E916F104A9F6112311F02F9A2D98AB
:1035500080E991E00E94DB130E94D913E0913206CA
:10356000F09133060190F081E02D82E396E0099519
:1035700082E390E00E94DB130E94E0138111F8CFF8
:103580008FEF9FEF9093E8058093E70580916400AB
:103590008E7F8093640080917A00806480937A00AB
:1035A00080917A0086FDFCCF00917800109179001F
:1035B0000E94CB1020E030E0980111270027600F17
:1035C000711F821F931F209164002160209364006B
:1035D000611571058105910511F00E94B22085E009
:1035E0000E9462138DE00E9462130E94AD202EECB7
:1035F00037E040E050E00E94D1206E5F7F4F8F4F58
:103600009F4F0E94F0100E94191700E420E849E63D
:103610005DE060E070E080E090E00E94C71782E328
:1036200096E00E94EA1345E050E060E070E08CED27
:1036300095E00E942C1764E670E080E090E00E9424
:10364000F0100E94191720E849E659E060E070E0A8
:1036500080E090E00E94C71782E396E00E94EA13A0
:1036600045E050E060E070E08CED95E00E942C17A2
:1036700064E670E080E090E00E94F0100E9419176C
:1036800020E849E655E060E070E080E090E00E94CC
:10369000C71782E396E00E94EA1345E050E060E03D
:1036A00070E08CED95E00E942C1764E670E080E0FD
:1036B00090E00E94F0100E94191720E849E651E0BE
:1036C00060E070E080E090E00E94C71782E396E03F
:1036D0000E94EA1345E050E060E070E08CED95E078
:1036E0000E942C1768EB7BE080E090E00E94F010D5
:1036F0000E94191720E849E655E060E070E080E09C
:1037000090E00E94C71782E396E00E94EA1345E02A
:1037100050E060E070E08CED95E00E942C1764E6CC
:1037200070E080E090E00E94F0100E94191720E8FD
:1037300049E659E060E070E080E090E00E94C71741
:1037400082E396E00E94EA1345E050E060E070E01A
:103750008CED95E00E942C1764E670E080E090E02C
:103760000E94F0100E94191720E849E65DE060E031
:1037700070E080E090E00E94C71782E396E00E942C
:10378000EA1345E050E060E070E08CED95E00E94C7
:103790002C1764E670E080E090E00E94F0100E9438
:1037A00019170E94FA140E94191781E280933906B2
:1037B0008FB7F8944091A6015091A7016091A8019C
:1037C0007091A9018FBF80913A06E42FE81B8E2FDC
:1037D00090913B06992329F0E0933C0610923B061A
:1037E00098C390913906E91748F48F5F891708F05C
:1037F00090C381E083BF889513BE8BC381E0809323
:103800003B0640933A068091350690913606019624
:10381000909336068093350680913706809338065C
:103820000E94E013809337060E9419170E94E0134C
:1038300085FF2AC00091AC011091AD011016110650
:10384000ACF4609106018FEF800F0E94AC158111DE
:103850000DC0015011091093AD010093AC0145E07A
:1038600050E060E070E080E496E006C042E350E0A3
:1038700060E070E084E690E00E942C1764E170E064
:1038800080E090E00E94F0100E94E01386FF2AC0C2
:103890000091AC011091AD0100321105ACF46091C2
:1038A000060181E0800F0E94AC1581110DC00F5FF1
:1038B0001F4F1093AD010093AC0145E050E060E074
:1038C00070E080E496E006C042E350E060E070E023
:1038D00084E690E00E942C1764E170E080E090E0C4
:1038E0000E94F0100E94E01387FF2AC00091060199
:1038F0001091070103301105ACF06FEF600F80915C
:10390000AC010E94AC1581110DC00150110910933A
:1039100007010093060145E050E060E070E080E4BC
:1039200096E006C042E350E060E070E084E690E09C
:103930000E942C1764E170E080E090E00E94F0109B
:103940000E94E01384FF2AC0009106011091070134
:103950000F301105ACF461E0600F8091AC010E9462
:10396000AC1581110DC00F5F1F4F1093070100931D
:10397000060145E050E060E070E080E496E006C0BB
:1039800042E350E060E070E084E690E00E942C1793
:1039900064E170E080E090E00E94F01010923E063A
:1039A00010923D061092400610923F062091AC0105
:1039B0003091AD013C832B832032310509F028C1C1
:1039C0001092AD011092AC0182E090E0909307015B
:1039D0008093060113E0E12EF12C08EF1FEF88EF32
:1039E000682E77247A9498EFA92EBB24BA9421E408
:1039F000922E88248394A9E1CA2ED12C0E941917F3
:103A000034E1A316B1040CF08CC282E0A80EB11C04
:103A100045E050E060E070E09A9CC0019B9C900DF6
:103A200011240E942C1794E1A916B10449F5EEE186
:103A30006E16710474F4F2E06F0E711C45E050E0F4
:103A400060E070E0969CC001979C900D11240E944C
:103A50002C17EEE16E16710481F4083211056CF436
:103A60000E5F1F4F45E050E060E070E0909EC001A7
:103A7000919E900D11240E942C17B4E1AB2EB12C15
:103A80002FE030E030933E0620933D06B092400692
:103A9000A0923F06109242068092410689E891E08A
:103AA0000E948C168DE290E090933E0680933D0636
:103AB0007092400660923F0680910401909105014A
:103AC0000E949E16E7E3F0E0F0933E06E0933D0689
:103AD0001093400600933F068FE891E00E948C16F9
:103AE00082E396E00E94EA13F1E0CF1AD10809F0D0
:103AF00085CF21E0E21AF10809F07DCF68EE73E08E
:103B000080E090E00E94F01072E0E72EF12C08EFC8
:103B10001FEFE8EF8E2E99249A94F1E4BF2E59E11D
:103B2000C52ED12C0E94191734E18316910474F428
:103B300082E0880E911C45E050E060E070E0B89CA7
:103B4000C001B99C900D11240E942C1794E1891694
:103B5000910481F40E3111056CF40E5F1F4F45E0A6
:103B600050E060E070E0B09EC001B19E900D112465
:103B70000E942C17EFE0F0E0F0933E06E0933D0644
:103B80009092400680923F0689E891E00E948C1650
:103B90002DE230E030933E0620933D061093400620
:103BA00000933F06809104019091050101960E94C7
:103BB0009E1682E396E00E94EA1331E0C31AD10810
:103BC00009F0B0CF81E0E816F10421F0EE24E3948F
:103BD000F12CA5CF6CED75E080E090E00E94F01034
:103BE0000E94FA148091040190910501019690932E
:103BF0000501809304011092AB011092AA01F0928A
:103C00000301E0920201F0920101E092000178C10B
:103C100033E0232E312C44244394512C84E090E053
:103C20009A838983E12CF12C02E010E0C12CD12C85
:103C3000CD82E2E0F0E0FF83EE83612C712C662DF3
:103C40008D810E94AC1520910001309101018823E3
:103C500009F48FC02130310571F48091AA0190914F
:103C6000AB0121E04E815F818C159D050CF496C05F
:103C70004250510923C02230310509F061C08091C2
:103C8000AA019091AB012E813F8122503109490157
:103C90008C159D058CF0570189819A81A816B9066B
:103CA00009F481C021E044E0B401C5010E94C715B8
:103CB0003FEFA31AB30AF0CF21E0A401B70182E3DA
:103CC00096E00E94ED1321E04E815F81B70182E30F
:103CD00096E00E94ED1321E08E809F8091E0891A8A
:103CE0009108A401B20182E396E00E94ED1321E065
:103CF000AE80BF80EFEFAE1ABE0AA501B20182E32B
:103D000096E00E94ED1321E04E815F81B80182E3CD
:103D100096E00E94ED1321E04E815F814E5F5F4F80
:103D2000B80182E396E00E94ED1321E0A401B10105
:103D300082E396E00E94ED1321E0A501B1012FC0BE
:103D40002330310581F5AE80BF80F2E0AF1AB108B3
:103D5000470189819A818816990609F4E8C021E013
:103D600044E0B501C4010E94C7152FEF821A920AE0
:103D7000F0CF23303105B9F4EB81FC81CE16DF069C
:103D800039F080910601909107016816790659F47F
:103D90006114710441F021E04E815F81B80182E33A
:103DA00096E00E94ED13FFEF6F1A7F0A2E813F818C
:103DB0002C5F3F4F3F832E832234310509F03FCFE4
:103DC0003FEFC31AD30A0C5F1F4F84E0E80EF11CCB
:103DD000E981FA813496FA83E983F4E04F0E511CAD
:103DE00024E0220E311C31E2C316D10409F020CFA9
:103DF00080910001909101010297BCF081E08093D5
:103E000042061092410610923E0610923D06109214
:103E1000400610923F0689E991E00E948C1680913D
:103E20000401909105010E949E16E0900201F0901D
:103E300003010091AC011091AD01C0900601D0903A
:103E40000701CC0CDD1CCC0CDD1CF1E0EF16F104FD
:103E500089F42FEFC21AD20A000F111F000F111F91
:103E60000F5F1F4F21E043E0B601C8010E94F31528
:103E700020E010C03FEFC31AD30A000F111F000F3C
:103E8000111F0F5F1F4F20E043E0B601C8010E94E1
:103E9000F31521E041E0B601C8010E94F3158FEF50
:103EA000E81AF80A91E1E916F1042CF4F092030102
:103EB000E092020106C081E090E0909303018093BC
:103EC00002018091AA019091AB018132910534F4F5
:103ED00001969093AB018093AA0112C080910001DA
:103EE00090910101833091055CF40196909301015A
:103EF00080930001029721F41092AB011092AA0165
:103F000082E396E00E94EA1360E070E0CB010E9439
:103F1000F01080E090E0892B09F44ACC0E94000068
:103F200047CCF4E1AF16B10409F0AACD80CD2B81C6
:103F30003C81C216D30641F08091060190910701A1
:103F40006816790609F02FCF6114710409F42BCF9C
:103F500020E022CFCF92DF92EF92FF920F931F9338
:103F6000CF93DF931F92CDB7DEB7182F062FE42E25
:103F7000862F880F8E5F99830E942F0C83E00E940A
:103F80002F0CF12EC12E9981D92E8C2D8F198017CF
:103F900098F4F601E7FE02C0849101C080810E947E
:103FA0002F0C182F80E00E942F0C8123FFEFCF1AD7
:103FB000DF0A8111EACF01C081E00F90DF91CF913C
:103FC0001F910F91FF90EF90DF90CF9008950F9386
:103FD0001F93CF93DF93EC0181E090E00E94E81300
:103FE00080FF2EC08AE090E00E94E8139FEF980FB8
:103FF0009E3F30F522E330E0388B2F8728E330E016
:104000003A8B298B0BE010E0E881F9810190F08177
:10401000E02D682FCE010995C8010E94E8130F5FBB
:104020001F4F0131110581F7CE0104960E94EA135A
:1040300088EE93E0DF91CF911F910F910C94DB13E9
:10404000DF91CF911F910F91089504970C94E71F72
:10405000EBEDF5E01382128288EE93E0A0E0B0E091
:1040600084839583A683B78387E691E091838083D9
:104070008FEF9FEF95878487EEE2F6E0138212823E
:104080001186128680E1838710861782158689E75C
:1040900091E09183808387E891E095838483108AFF
:1040A0001786128A118A81E0838B148A858B168A7F
:1040B00087EA9DE090932C0680932B0608958F92BB
:1040C0009F92AF92BF92CF92DF92EF92FF92CF93E7
:1040D000DF93EC01688179818A819B81611571058B
:1040E0008105910521F464E279ED8BE597E02DE1FE
:1040F00033EF41E050E00E94D12049015A019B0179
:10410000AC01A7EAB1E40E94F0206B017C01ACEEA7
:10411000B4EFA50194010E94FE20DC01CB018C0DBF
:104120009D1DAE1DBF1DB7FF03C00197A109B0487B
:1041300088839983AA83BB83BC01CD019F77DF91DC
:10414000CF91FF90EF90DF90CF90BF90AF909F9076
:104150008F9008950E945F20089586E591E00E9467
:104160005F20089560935601709357018093580122
:10417000909359010895F999FECF92BD81BDF89AA7
:10418000992780B50895262FF999FECF1FBA92BDC1
:1041900081BD20BD0FB6F894FA9AF99A0FBE019628
:1041A0000895052E97FB1EF400940E94E82057FD09
:1041B00007D00E94032107FC03D04EF40C94E820A2
:1041C00050954095309521953F4F4F4F5F4F089543
:1041D00090958095709561957F4F8F4F9F4F089573
:1041E0000E942521A59F900DB49F900DA49F800D46
:1041F000911D11240895B7FF0C94F0200E94F02027
:10420000821B930B0895A1E21A2EAA1BBB1BFD0172
:104210000DC0AA1FBB1FEE1FFF1FA217B307E407A5
:10422000F50720F0A21BB30BE40BF50B661F771FFD
:10423000881F991F1A9469F76095709580959095DD
:104240009B01AC01BD01CF010895A29FB001B39FB6
:10425000C001A39F700D811D1124911DB29F700D8F
:10426000811D1124911D0895991B79E004C0991FA7
:10427000961708F0961B881F7A95C9F780950895C0
:10428000EE0FFF1F0590F491E02D099481E090E07E
:0A429000F8940C944B21F894FFCF32
:10429A000100010001000200FFDF01C055D501C085
:1042AA0055D501C055D501C055D501C055D501C058
:1042BA0055D501C055D501C055D501C055D501C048
:1042CA0055D501C055D501C055D501C055D501C038
:1042DA0055D501C055D5FDFF0000FFFFFFFF00E1E6
:1042EA0000000000000001000000030100C18081FD
:1042FA0000000000000000BC0C2A11E30DD20CDD06
:10430A000C0B0EE70D000000000B14910CAC0DAB6A
:10431A000DE71FFCFF000025204C4556454C004385
:10432A004F4D504C45544521006C6576656C3A20DA
:02433A00000081
:00000001FF
